:020000040800F2
:10000000000002204D020008B11E0008B31E0008C7
:10001000B51E0008B71E0008B91E00080000000049
:10002000000000000000000000000000BB1E0008EF
:10003000BD1E000800000000BF1E0008C11E000811
:100040009D0200089D0200089D0200089D02000814
:100050009D0200089D0200089D0200089D02000804
:100060009D0200089D0200089D020008C91E0008AC
:10007000D91E0008E91E00089D020008F91E0008AC
:10008000091F0008191F00089D0200089D020008B2
:100090009D0200089D0200089D0200089D020008C4
:1000A0009D0200089D020008799100089D02000849
:1000B000958C0008519100089D0200089D020008DF
:1000C0009D0200089D0200089D0200089D02000894
:1000D0009D0200080D8E00089D020008B58E0008E4
:1000E0009D0200089D0200089D0200089D02000874
:1000F0009D0200089D0200089D0200086190000812
:100100009D0200089D0200089D0200089D02000853
:100110009D0200089D0200089D0200089D02000843
:100120009D0200089D0200089D0200089D02000833
:100130009D0200089D0200089D0200089D02000823
:10014000291F00084D1F0008711F00089D020008AC
:10015000299700089D0200089D02000801970008E9
:100160009D0200089D0200089D0200089D020008F3
:100170009D0200089D0200089D0200089D020008E3
:100180009D0200089D0200089D0200089D020008D3
:100190009D020008000000009D0200089D0200086A
:1001A0009D0200089D0200089D0200089D020008B3
:1001B0009D0200089D0200089D0200089D020008A3
:1001C0009D0200089D0200089D0200089D02000893
:0801D0009D0200089D020008D9
:1001D80053B94AB9002908BF00281CBF4FF0FF31A6
:1001E8004FF0FF3000F00CB8ADF1080C6DE904CE0B
:1001F80009F008FFDDF804E0DDE9022304B07047E8
:10020800704700BF10B5054C237833B9044B13B1C0
:100218000448AFF300800123237010BDF8000020CC
:1002280000000000C8A2000808B5034B1BB1034931
:100238000348AFF3008008BD00000000FC00002068
:10024800C8A200080D4885460D480E490E4A0023ED
:1002580002E0D458C4500433C4188C42F9D30B4A72
:100268000B4C002301E013600432A242FBD305F0DB
:1002780003FC09F0A3FE00F06FF8FEE7000002207F
:1002880000000020F800002098A50008F8000020D1
:1002980078660020FEE7000000BF0B4B984212D0A2
:1002A8000A4B98420FD00A4B98420CD0094B9842FF
:1002B80009D0094B984206D0084B984203D0084B06
:1002C800984200D000BF704710020020EC010020C7
:1002D800C8010020A4010020800100205C0100204A
:1002E8003801002072B6FEE700B595B0382200212B
:1002F80006A809F05BFE002001900290039004908C
:10030800059003F08DFA012206924FF4A02307937B
:1003180002230D9303210E910F921522109211932F
:100328001293139306A802F06BF880B90F23019378
:1003380003230293002303930493059304210DEBF5
:10034800010002F013FB20B915B05DF804FBFFF7BC
:10035800C9FFFFF7C7FF000000B589B001F0F0FF43
:10036800FFF7C2FF00F098F801F038F901F080F9C2
:1003780001F062FC00F050FA00F05AFB01F050F86E
:1003880000F03EF900F082FD01F05AF801F096F90C
:1003980000F0C2FE01F046FA01F01AFC00F070FC11
:1003A80000F084FE00F09EFE00F0D2FE00F0EAFEAF
:1003B80000F004FF00F01EFF01F078F801F0A2F849
:1003C80001F0FAFA05F062FB01F07EFB01F09EFAFB
:1003D80006F018F90023029303930493012205926F
:1003E800069340F2FF73079302A9274803F0F0FE33
:1003F80008B1FFF777FF02A9244803F0E9FE08B126
:10040800FFF770FF00230093022211461E4803F0F5
:1004180012FF08B1FFF766FF00230093022211467E
:100428001A4803F008FF08B1FFF75CFF164803F00D
:1004380023FF08B1FFF756FF144803F01DFF08B16A
:10044800FFF750FF002212490F4803F02CFF08B1B4
:10045800FFF748FF00220E490C4803F024FF08B1BB
:10046800FFF740FF0B4B40F222321A6000225A601D
:100478009A604FF40021D9601A615A619A61DA6171
:100488001A6206F0F8FCFEE7D80200207402002089
:1004980001002000140100202DE9F0478EB000244F
:1004A800089409940A940B940C940D94404BDA6CBC
:1004B80042F02002DA64DA6C02F020020792079A0E
:1004C800DA6C42F04002DA64DA6C02F0400206921A
:1004D800069ADA6C42F00402DA64DA6C02F004027A
:1004E8000592059ADA6C42F00102DA64DA6C02F0DD
:1004F80001020492049ADA6C42F00202DA64DA6CBD
:1005080002F002020392039ADA6C42F01002DA64F3
:10051800DA6C02F010020292029ADA6C42F00802D7
:10052800DA64DB6C03F008030193019B214F4FF45D
:100538008066BE624FF4006AC7F828A01E4D4FF4CB
:100548008079C5F828904FF08008C5F8288008966B
:1005580008A91A4801F0C3FD0896012609960A94CD
:100568000B940C9408A9384601F0B9FDCDF820A0E9
:1005780009960A940B940C9408A9384601F0AFFD2B
:10058800CDF8209009960A940B940C9408A9284653
:1005980001F0A5FDCDF8208009960A940B940C94DF
:1005A80008A9284601F09BFD0EB0BDE8F08700BF02
:1005B8000010024000040048000C004800180048E1
:1005C80000B500F00700C0F1070CBCF1040F28BF0C
:1005D8004FF0040C031D062B0FD9C31E4FF0FF3E2E
:1005E8000EFA0CF021EA000199400EFA03FE22EA05
:1005F8000E0241EA02005DF804FB0023EEE700006A
:1006080030B5AFB000212B912C912D9125912691D9
:100618002791289129912A9121912291239124911E
:100628001D911E911F9120911791189119911A915E
:100638001B911C91542202A809F0B8FC4FF4004306
:1006480002934FF00053139302A802F0B5FA002862
:1006580040F09D806B4BDA6C42F40052DA64DA6C3D
:1006680002F400520192019ADA6C42F00102DA6453
:10067800DB6C03F001030093009B01231793032411
:10068800189400251B9517A94FF0904001F027FDFD
:100698000423179318941B9517A94FF0904001F065
:1006A8001EFD0823179318941B9517A94FF0904027
:1006B80001F015FD2B952C952D952BA94FF0A040F9
:1006C80001F0A8FD26952795289529954FF4805384
:1006D8002A9325A94FF0A04001F0B4FD4FF0A044A3
:1006E800D4F8C03023F47F5323F03F03C4F8C0305C
:1006F800236923F480332361236923F4806323F07F
:10070800030343F0020323614FF4403321932295FE
:1007180021A93D4801F028FDB0231D9302231E9313
:100728001F9520951DA9204601F0BCFDE36823F024
:10073800004323F4001343F00043E360236923F4E8
:10074800FE7343F00C032361E36C23F4C07343F09E
:100758008003E364A36823F0204323F03F03A360EE
:10076800A36823F0104323F03F0343F08053A360B2
:10077800264B1B689B09264AA2FB03239B0903EB14
:1007880083039B00234AA2FB0323DB0803E0FFF754
:10079800A9FD5FE7013B002BFCD14FF0A043DA6CC9
:1007A80022F4785242F40072DA645A6922F038026C
:1007B8005A61D3F8B02022F00202C3F8B020DA6CF4
:1007C80022F4782242F4C032DA645A6922F4606270
:1007D8005A61D3F8B02022F00802C3F8B020DA6CCE
:1007E80022F0787242F40002DA645A6922F4E04294
:1007F8005A61D3F8B02022F01002C3F8B0202FB00D
:1008080030BD00BF00100240000300502800002047
:10081800632D3E05CDCCCCCC70B5ACB00021299170
:100828002A912B9123912491259126912791289102
:100838001F9120912191229119911A911B911C913C
:100848001D911E91542204A809F0B0FB4FF40043F7
:1008580004934FF00053159304A802F0ADF9002853
:1008680040F098806C4BDA6C42F40052DA64DA6C2F
:1008780002F400520392039ADA6C42F00102DA643D
:10088800DA6C02F001020292029ADA6C42F0040277
:10089800DA64DB6C03F004030193019B02261996CA
:1008A80003241A9400251D9519A94FF0904001F0D2
:1008B80016FC402319931A941D9519A94FF09040DE
:1008C80001F00DFC102319931A941D9519A953488A
:1008D80001F005FC29952A952B95514C29A920460C
:1008E80001F098FC24952595269527954FF480537B
:1008F800289323A9204601F0A5FCD4F8C03023F49E
:100908007F5323F03F03C4F8C030236923F48033B6
:100918002361236923F4806323F0030333432361B2
:10092800B0231F932096219522951FA9204601F0F8
:10093800B9FCE36823F0004323F4001343F00043B9
:10094800E360236923F4FE7343F00C032361E36C33
:1009580023F4C07343F08003E364A36823F02043C7
:1009680023F03F03A360A36823F0104323F03F0361
:1009780043F08053A3602B4B1B689B092A4AA2FBB8
:1009880003239B0903EB8303B340284AA2FB0323F9
:10099800DB0803E0FFF7A6FC64E7013B002BFCD172
:1009A8001F4BDA6C22F4785242F48062DA644FF01A
:1009B800A042D2F8141121F4E071C2F81411D3F84E
:1009C800B01021F00401C3F8B010D96C21F47821DB
:1009D80041F4C031D964D2F8141121F46061C2F82D
:1009E8001411D3F8B01021F00801C3F8B010D96C75
:1009F80021F0787141F42001D964D2F8141121F45E
:100A08006031C2F81411D3F8B02022F02002C3F8E4
:100A1800B0202CB070BD00BF001002400008004894
:100A28000001005028000020632D3E05CDCCCCCC21
:100A380070B5AEB000212B912C912D912591269166
:100A48002791289129912A912191229123912491EA
:100A58001D911E911F9120911791189119911A912A
:100A68001B911C91542202A809F0A0FA4FF480337C
:100A780002934FF00043149302A802F09DF8002857
:100A880040F0AA80754BDA6C42F48042DA64DA6C82
:100A980002F480420192019ADA6C42F01002DA64A0
:100AA800DB6C03F010030093009B8023179303244F
:100AB800189400251B956A4E17A9304601F00FFBC4
:100AC8004FF40073179318941B9517A9304601F03B
:100AD80006FB4FF40053179318941B9517A930463B
:100AE80001F0FDFA5F4BD8682A462146C0F3022080
:100AF800FFF766FD0001C0B25B4B83F82F034FF48C
:100B080000425A602B952C952D95584C2BA92046C0
:100B180001F080FB26952795289529954FF4805359
:100B28002A9325A9204601F08DFBD4F8C03023F480
:100B38007F5323F03F03C4F8C030236923F4803384
:100B48002361236923F4806323F0030343F0020342
:100B580023614FF440332193229521A9444801F0A1
:100B680003FBB0231D9302231E931F9520951DA9F7
:100B7800204601F097FBE36823F0004323F40013B9
:100B880043F00043E360236923F4FE7343F00C034E
:100B98002361E36C23F4C07343F08003E364A36828
:100BA80023F0204323F03F03A360A36823F01043FE
:100BB80023F03F0343F08053A3602E4B1B689B092F
:100BC8002D4AA2FB03239B0903EB83039B002B4ABB
:100BD800A2FB0323DB0803E0FFF784FB52E7013B9A
:100BE800002BFCD1214BDA6C22F4785242F480625B
:100BF800DA644FF0A042D2F8141421F4E071C2F87C
:100C08001414D3F8B01021F00401C3F8B010D96C53
:100C180021F4782141F4C031D964D2F8141421F4B4
:100C28006061C2F81414D3F8B01021F00801C3F8B9
:100C3800B010D96C21F0787141F40001D964D2F870
:100C4800141421F4E041C2F81414D3F8B02022F0AF
:100C58001002C3F8B0202EB070BD00BF00100240D3
:100C68000010004800ED00E000E100E00004005042
:100C78000007005028000020632D3E05CDCCCCCCC9
:100C880070B5AAB00021279128912991219122912C
:100C980023912491259126911D911E911F912091B8
:100CA8001791189119911A911B911C91542202A81D
:100CB80009F07CF94FF4803302934FF0004314930A
:100CC80002A801F079FF002840F09380694BDA6CA4
:100CD80042F48042DA64DA6C02F480420192019AAA
:100CE800DA6C42F01002DA64DB6C03F01003009354
:100CF800009B4FF4807317930326189600251B95C5
:100D08005D4C17A9204601F0EAF94FF48043179388
:100D180018961B9517A9204601F0E1F94FF40043F6
:100D2800179318961B9517A9204601F0D8F927950F
:100D380028952995514C27A9204601F06BFA229550
:100D48002395249525954FF48053269321A9204671
:100D580001F078FAD4F8C03023F47F5323F03F032E
:100D6800C4F8C030236923F480332361236923F452
:100D7800806323F0030343F002032361B0231D9330
:100D880002231E931F9520951DA9204601F08AFA7B
:100D9800E36823F0004323F4001343F00043E360C7
:100DA800236923F4FE7343F00C032361E36C23F4FB
:100DB800C07343F08003E364A36823F0204323F067
:100DC8003F03A360A36823F0104323F03F0343F0DD
:100DD8008053A3602A4B1B689B092A4AA2FB032362
:100DE8009B0903EB83039B00274AA2FB0323F340E1
:100DF80003E0FFF777FA69E7013B002BFCD11F4BB3
:100E0800DA6C22F4785242F40072DA644FF0A042AD
:100E1800D2F8141521F03801C2F81415D3F8B0101F
:100E280021F00201C3F8B010D96C21F4782141F403
:100E38008031D964D2F8141521F4E071C2F8141580
:100E4800D3F8B01021F00401C3F8B010D96C21F028
:100E5800787141F44001D964D2F8141521F4E011F5
:100E6800C2F81415D3F8B02022F04002C3F8B0201D
:100E78002AB070BD00100240001000480005005064
:100E880028000020632D3E05CDCCCCCCF0B5AFB00A
:100E980000212B912C912D91259126912791289114
:100EA80029912A9121912291239124911D911E919A
:100EB8001F9120911791189119911A911B911C91CA
:100EC800542202A809F072F84FF4803302934FF0CD
:100ED8000043149302A801F06FFE002840F08F80B1
:100EE8006B4BDA6C42F48042DA64DA6C02F48042CA
:100EF8000192019ADA6C42F01002DA64DB6C03F0BA
:100F080010030093009B4FF400631793032718976F
:100F180000251B955F4C17A9204601F0E0F84FF417
:100F28008056179618971B9517A9204601F0D7F8F1
:100F38002B952C952D95584C2BA9204601F06AF934
:100F480026952795289529952A9625A9204601F0C2
:100F580079F9D4F8C03023F47F5323F03F03C4F861
:100F6800C030236923F480332361236923F4806329
:100F780023F0030343F0020323614FF4403321932A
:100F880021A9464801F0F0F8B0231D9302231E93CF
:100F98001F9520951DA9204601F084F9E36823F0E8
:100FA800004323F4001343F00043E360236923F470
:100FB800FE7343F00C032361E36C23F4C07343F026
:100FC8008003E364A36823F0204323F03F03A36076
:100FD800A36823F0104323F03F0343F08053A3603A
:100FE8002F4B1B689B092F4AA2FB03239B0903EB8A
:100FF80083039B002C4AA2FB0323FB4003E0FFF77B
:1010080071F96DE7013B002BFCD1234BDA6C22F41C
:10101800785242F40062DA644FF0A042D2F8141613
:1010280021F4E041C2F81416D3F8B01021F01001F1
:10103800C3F8B0101948816821F0E07141F440010B
:101048008160D96C21F4782141F4F021D964D2F877
:10105800181621F46031C2F81816D3F8B01021F42C
:101068000041C3F8B010D96C21F0787141F00071DB
:10107800D964D2F8181621F4E011C2F81816D3F87A
:10108800B02022F48032C3F8B0202FB0F0BD00BFEA
:1010980000100240001000480006005000070050F1
:1010A80028000020632D3E05CDCCCCCC08B50B48DC
:1010B8000B4B03604FF4807343605023836000231D
:1010C80003614FF4E022C26043612123836102F08F
:1010D800B1FC00B908BDFFF705F9FBE710020020D5
:1010E8000002014008B50A480A4B03600023436028
:1010F8005022826003614FF4E022C26043612123E1
:10110800836102F097FC00B908BDFFF7EBF8FBE735
:10111800EC0100200402014008B50B480B4B0360AA
:101128004FF48073436050238360002303614FF4BE
:10113800E022C26043612123836102F07BFC00B995
:1011480008BDFFF7CFF8FBE7C801002008020140FF
:1011580008B50A480A4B03600023436050228260A6
:1011680003614FF4E022C26043612123836102F0EE
:1011780061FC00B908BDFFF7B5F8FBE7A401002042
:101188000C02014008B50B480B4B03604FF4807309
:10119800436050238360002303614FF4E022C26060
:1011A80043612123836102F045FC00B908BDFFF7C4
:1011B80099F8FBE7800100201002014008B50B48B0
:1011C8000B4B03604FF4807343605023836000230C
:1011D80003614FF4E022C26043612123836102F07E
:1011E80029FC00B908BDFFF77DF8FBE75C0100208A
:1011F8001402014008B50B480B4B03604FF4807391
:10120800436040238360002303614FF4E022C260FF
:1012180043612123836102F00DFC00B908BDFFF78B
:1012280061F8FBE7380100201802014000B58DB0D5
:1012380000230793089309930A930B9303686D4A55
:10124800934216D06C4A93422ED06C4A934247D0B0
:101258006B4A93425FD06B4A934277D06A4A934273
:1012680000F09080694A934200F0A8800DB05DF8C4
:1012780004FB674BDA6C42F00202DA64DB6C03F0C1
:1012880002030093009B022307930323089307A9F3
:10129800604802F007F800221146402002F0A2FB45
:1012A800402002F0AFFBE1E7594BDA6C42F0010253
:1012B800DA64DB6C03F001030193019B802307933D
:1012C8000323089307A94FF0904001F0EBFF002299
:1012D8001146402002F086FB402002F093FBC5E750
:1012E8004B4BDA6C42F00402DA64DB6C03F0040363
:1012F8000293029B022307930323089307A94648F6
:1013080001F0D0FF00221146402002F06BFB402084
:1013180002F078FBAAE73E4BDA6C42F00202DA648C
:10132800DB6C03F002030393039B0123079303235E
:10133800089307A9374801F0B5FF0022114641205C
:1013480002F050FB412002F05DFB8FE7304BDA6C76
:1013580042F00802DA64DB6C03F008030493049B90
:101368004FF4805307930323089307A92B4801F0F0
:1013780099FF00221146412002F034FB412002F07F
:1013880041FB73E7224BDA6C42F00802DA64DB6C4B
:1013980003F008030593059B4FF4006307930323A9
:1013A800089307A91D4801F07DFF0022114641203E
:1013B80002F018FB412002F025FB57E7144BDA6CCA
:1013C80042F00802DA64DB6C03F008030693069B1C
:1013D8004FF4804307930323089307A90F4801F0AC
:1013E80061FF00221146422002F0FCFA422002F07E
:1013F80009FB3BE7000201400402014008020140EA
:101408000C02014010020140140201401802014080
:10141800001002400004004800080048000C004882
:1014280082B0064B9A6C42F008029A649B6C03F0F7
:1014380008030193019B02B0704700BF00100240EF
:1014480000B58DB030220021684608F0AFFD154880
:10145800154B036002F084FCD0B9022300930022EC
:101468008DF804208DF805200292039204920593CA
:101478000693079269460B4802F084FC58B910227B
:101488006946084802F07EFC40B90DB05DF804FBDF
:10149800FEF728FFE1E7FEF725FFF0E7FEF722FF5A
:1014A800F3E700BF5C0200200008005000B58DB0D3
:1014B80030220021684608F079FD1048104B03607F
:1014C80002F04EFCA0B90223009300228DF80420FC
:1014D8008DF80520029203920492059306930792D1
:1014E8006946064802F04EFC28B90DB05DF804FBC9
:1014F800FEF7F8FEE7E7FEF7F5FEF6E748020020FC
:10150800000C005000B58DB030220021684608F06C
:101518004DFD1548154B036002F022FCD0B902239B
:10152800009300228DF804208DF805200292039282
:10153800049205930693079269460B4802F022FC31
:1015480058B910226946084802F01CFC40B90DB091
:101558005DF804FBFEF7C6FEE1E7FEF7C3FEF0E721
:10156800FEF7C0FEF3E700BF34020020001400506D
:1015780084B00368154A934207D0154A93420FD0A6
:10158800144A934217D004B07047134BDA6C42F4F4
:101598008032DA64DB6C03F480330193019BF2E759
:1015A8000D4BDA6C42F40032DA64DB6C03F400337E
:1015B8000293029BE7E7084BDA6C42F40022DA64F4
:1015C800DB6C03F400230393039BDCE70008005063
:1015D800000C0050001400500010024000B583B009
:1015E800224B9A6C42F004029A649A6C02F004024C
:1015F8000092009A9A6C42F001029A649B6C03F084
:1016080001030193019B002211460B2002F0EAF925
:101618000B2002F0F7F9002211460C2002F0E2F943
:101628000C2002F0EFF9002211460D2002F0DAF941
:101638000D2002F0E7F9002211460F2002F0D2F93E
:101648000F2002F0DFF900221146102002F0CAF93B
:10165800102002F0D7F900221146112002F0C2F939
:10166800112002F0CFF903B05DF804FB001002402E
:1016780038B51048104B0360002343608360C36093
:1016880001220274437483741525456182610D2417
:10169800C4610221016245628262C46201634263DD
:1016A8008363C36302F0AAFC00B938BDFEF71AFED3
:1016B800FBE700BFD80200200064004038B510489E
:1016C800104B0360002343608360C36001220274EF
:1016D800437483741525456182610D24C461022118
:1016E800016245628262C462016342638363C363C9
:1016F80002F084FC00B938BDFEF7F4FDFBE700BF3B
:10170800740200200068004010B59EB00446002115
:1017180019911A911B911C911D91542204A808F04B
:1017280045FC2368394A934204D0394A934237D05A
:101738001EB010BD4FF4805304934FF00073129302
:1017480004A801F039FAE8B9324A13680133136082
:10175800012B1AD0304BDA6C42F00802DA64DB6CE9
:1017680003F008030193019B0323199302231A939F
:1017780000231B931C9309231D9319A9274801F0E3
:1017880091FDD5E7FEF7AEFDDEE7234B9A6D42F0FB
:1017980000729A659B6D03F000730093009BD9E774
:1017A8004FF4805304934FF00073129304A801F090
:1017B80003FAE8B9174A136801331360012B1AD0EA
:1017C800154BDA6C42F00202DA64DB6C03F00203B8
:1017D8000393039B6023199302231A9300231B93FB
:1017E8001C9309231D9319A90D4801F05BFD9FE780
:1017F800FEF778FDDEE7084B9A6D42F000729A65B5
:101808009B6D03F000730293029BD9E700640040CC
:10181800006800407002002000100240000C0048E0
:101828000004004808B51548154B036003F101533F
:1018380003F5801303F68C33436000238360012291
:10184800C260036143618361C361036202F0AEFD5C
:1018580050B90021094802F007FE40B900210748A5
:1018680002F030FE30B908BDFEF73CFDF1E7FEF7A7
:1018780039FDF3E7FEF736FDF5E700BF3C0300202E
:101888000054004010B59CB00446002117911891EF
:1018980019911A911B91542202A808F087FB22681B
:1018A800174B9A4201D01CB010BD4023029302A8E6
:1018B80001F082F908BB134CE36C43F00203E364C4
:1018C800E36C03F002030093009B4FF440731793FB
:1018D80012231893002319931A9304231B9317A90F
:1018E800094801F0DFFCA36D43F40013A365A36D61
:1018F80003F400130193019BD5E7FEF7F3FCDAE745
:1019080000540040001002400004004800B58FB0A9
:1019180000230A930B930C930D9307930893099351
:10192800009301930293039304930593069320482D
:10193800204A02604360836041F65732C260036107
:10194800836102F0F3FF18BB4FF480530A930AA98E
:10195800174803F0B1F9F0B9154803F017F8E8B9DA
:10196800202307930023099307A9114803F00EFCCD
:10197800B8B90022009240F6AB5301930292049248
:1019880069460B4803F0B0F870B90FB05DF804FB76
:10199800FEF7A8FCD8E7FEF7A5FCDDE7FEF7A2FCFA
:1019A800DEE7FEF79FFCE4E7FEF79CFCEDE700BFEF
:1019B800D40300200004004008B50A480A4B03601D
:1019C800092343600023836044F29F12C2600361CD
:1019D8004361836102F0AAFF00B908BDFEF782FCEB
:1019E800FBE700BF880300200048014000B585B030
:1019F8000368B3F1804F08D01D4A934219D01D4A9D
:101A0800934221D005B05DF804FB03F504339A6DC9
:101A180042F001029A659B6D03F001030193019B5B
:101A2800002201211C2001F0DDFF1C2001F0EAFF4B
:101A3800E8E7114B9A6D42F002029A659B6D03F03C
:101A480002030293029BDDE70B4B1A6E42F48022DD
:101A58001A661B6E03F480230393039B0022042160
:101A68001A2001F0BFFF1A2001F0CCFFCAE700BF1F
:101A780000040040004801400010024000B587B053
:101A88000023019302930393049305930368B3F12E
:101A9800804F02D007B05DF804FB03F50433DA6C1D
:101AA80042F00802DA64DB6C03F008030093009B41
:101AB8005023019302230293059301A9014801F0E1
:101AC800F1FBE7E7000C004800B58FB000230A934C
:101AD8000B930C930D930793089309930093019329
:101AE8000293039304930593069338484FF080427A
:101AF80002604360836044F61F62C26003618361D1
:101B080002F014FF002849D14FF480530A930AA920
:101B18002E4803F0D1F8002843D12C4802F066FF84
:101B2800002841D1294802F031FF00283FD1002385
:101B38000793099307A9254803F028FB002839D102
:101B48006023009344F2506301930223029300231D
:101B58000493042269461D4803F003F868BB002378
:101B680000934FF4C862019202930822694617480D
:101B780002F0BAFF20BB602300934FF47A730193FD
:101B8800022302930C226946104802F0EAFFD0B9FA
:101B98000E48FFF773FF0FB05DF804FBFEF7A2FBDA
:101BA800B2E7FEF79FFBB8E7FEF79CFBBAE7FEF744
:101BB80099FBBCE7FEF796FBC2E7FEF793FBCEE77F
:101BC800FEF790FBD7E7FEF78DFBE1E72004002046
:101BD80008B51748174B03604FF4E13343600023FF
:101BE8008360C36003610C2242618361C361036245
:101BF8004362836203F07DFE70B900210C4803F054
:101C0800F0FE60B900210A4803F010FF50B90848F7
:101C180003F0C8FE48B908BDFEF764FBEDE7FEF720
:101C280061FBEFE7FEF75EFBF1E7FEF75BFBF2E730
:101C38007C0600200038014008B51748174B0360A0
:101C48004FF4E133436000238360C36003610C22D7
:101C580042618361C36103624362836203F049FEA8
:101C680070B900210C4803F0BCFE60B900210A4895
:101C780003F0DCFE50B9084803F094FE48B908BDEB
:101C8800FEF730FBEDE7FEF72DFBEFE7FEF72AFB4B
:101C9800F1E7FEF727FBF2E7EC05002000480040DB
:101CA8002DE9F0419EB00446002119911A911B912B
:101CB8001C911D91542204A808F078F923686D4AF4
:101CC800934205D06C4A934263D01EB0BDE8F081C0
:101CD8000123049304A800F06FFF002850D1674B3C
:101CE8001A6E42F480421A661A6E02F4804200921A
:101CF800009ADA6C42F01002DA64DB6C03F010032D
:101D08000193019B0323199302231A9300251B9522
:101D18001C9507231D9319A9594801F0C3FA59487E
:101D2800594B0360182343608560C56080230361B5
:101D380045618561C561056201F0F8FB18BB514B2F
:101D4800E3679C625148524B036019234360102398
:101D580083600023C3608022026143618361C361A1
:101D6800036201F0E3FB88B9484BA3679C62002239
:101D78000421252001F036FE252001F043FEA4E7CA
:101D8800FEF7B0FAABE7FEF7ADFAD8E7FEF7AAFA26
:101D9800EAE70423049304A800F00EFF002860D1AA
:101DA800364B9A6D42F480229A659A6D02F480222D
:101DB8000292029ADA6C42F00402DA64DB6C03F0F5
:101DC80004030393039B4FF48063199302261A9626
:101DD80000251B951C954FF00708CDF874802D4FF2
:101DE80019A9384601F05EFA4FF4006319931A9660
:101DF8001B961C95CDF8748019A9384601F052FA43
:101E08002548264B03601C2343608560C5608023FA
:101E1800036145618561C561056201F087FB18BBF7
:101E28001D4BE3679C621E481E4B03601D234360E5
:101E3800102383600023C3608022026143618361B1
:101E4800C361036201F072FB88B9154BA3679C62FA
:101E580000220421272001F0C5FD272001F0D2FD32
:101E680033E7FEF73FFA9BE7FEF73CFAD8E7FEF7C1
:101E780039FAEAE700380140004800400010024003
:101E8800001000488C050020300002402C0500207E
:101E98008000024000080048CC04002008000240EE
:101EA8006C0400201C000240FEE7FEE7FEE7FEE7A8
:101EB800FEE770477047704708B500F051FA08BD53
:101EC80008B5024801F047FC08BD00BFCC0400205B
:101ED80008B5024801F03FFC08BD00BF6C040020B3
:101EE80008B5024801F037FC08BD00BF8C0500208A
:101EF80008B5024801F02FFC08BD00BF700700209C
:101F080008B5024801F027FC08BD00BF10070020F3
:101F180008B5024801F01FFC08BD00BF2C050020D1
:101F280008B5054801F0D2FE044801F0CFFE044888
:101F380001F0CCFE08BD00BF10020020EC0100201B
:101F4800C801002008B5054801F0C0FE044801F0AA
:101F5800BDFE044801F0BAFE08BD00BFA401002080
:101F6800800100205C01002008B5024801F0AEFEA7
:101F780008BD00BF3801002000B583B00B4B1A6EB6
:101F880042F001021A661A6E02F001020092009AEB
:101F98009A6D42F080529A659B6D03F080530193CD
:101FA800019B01F0C3FC03B05DF804FB0010024084
:101FB80010B4046891FAA1F3A3B1B3FA83F35B00F8
:101FC8004FF0030C0CFA03F324EA030391FAA1F18E
:101FD80051B1B1FA81F149008A40134303605DF8B9
:101FE800044B70472023EAE72021F4E710B4846803
:101FF80091FAA1F3A3B1B3FA83F35B004FF0030C9A
:102008000CFA03F324EA030391FAA1F151B1B1FAEE
:1020180081F149008A40134383605DF8044B70479F
:102028002023EAE72021F4E710B4C46891FAA1F369
:10203800A3B1B3FA83F35B004FF0030C0CFA03F37C
:1020480024EA030391FAA1F151B1B1FA81F14900EF
:102058008A401343C3605DF8044B70472023EAE7C6
:102068002021F4E710B4046A91FAA1F3A3B1B3FAFA
:1020780083F39B004FF00F0C0CFA03F324EA0303DD
:1020880091FAA1F151B1B1FA81F189008A40134363
:1020980003625DF8044B70472023EAE72021F4E748
:1020A80010B4446A090A91FAA1F3A3B1B3FA83F30D
:1020B8009B004FF00F0C0CFA03F324EA030491FA87
:1020C800A1F151B1B1FA81F189008A401443446207
:1020D8005DF8044B70472023EAE72021F4E7F8B5C0
:1020E80007460E460D6895FAA5F515B1B5FA85F5BA
:1020F8001BE0202519E0B26821463846FFF776FF35
:102108003268F1687B6823EA020301FB02F2134399
:102118007B6016E0726921463846FFF7C1FF726896
:1021280021463846FFF744FF0135346834FA05F292
:1021380017D00122AA401440F6D07368013B012B46
:10214800D9D9326921463846FFF76EFF7368022BEA
:10215800E5D1FF2CDED8726921463846FFF782FFA9
:10216800DDE70020F8BD000010B44C68234B98420E
:1021780025D0234B9A6812F0010200D00122214B8E
:102188009B6813F0010300D0012313431E4A926891
:1021980012F0010200D0012213430CBF01230023D7
:1021A8003BB3F4B18268194B13400A6814438A6838
:1021B8001443CA6814432343836000201AE04FF095
:1021C800A0439A6812F0010200D00122104B9B68CC
:1021D80013F0010300D0012313430CBF0123002394
:1021E800DEE78268094B13400A68134383600020C6
:1021F80000E001205DF8044B704700BF0003005069
:10220800000400500005005000060050E030C0FFF8
:1022180000010050836813F0010F10D110B4C36897
:1022280023F4404323F018030A684C682243896862
:102238000A431343C36000205DF8044B7047012034
:10224800704700004A68836813F0010F26D110B464
:10225800BAB1C368124A1A400B688C682343CC6829
:1022680023430C6923434C6923431A43C2604B68D8
:10227800026B22F00F021343036300205DF8044B46
:102288007047C368064A1A400B68CC6823430C6938
:1022980023434C6923431A43C260E8E7012070478F
:1022A8001CC0F0FF4A68836813F0010F1ED110B4F8
:1022B800AAB1C36823F004738A68CC682243134325
:1022C800C360C36C23F4FF7323F001030A684968F1
:1022D8000A431343C36400205DF8044B7047C36886
:1022E80023F00473CA681343C360EAE70120704708
:1022F800104B1B680BB90120704710B504464FF40A
:102308007A70B0FBF3F30C4A1068B0FBF3F001F0FD
:102318007DFB68B90F2C01D901200AE00022214673
:102328004FF0FF3001F05EFB044B1C60002000E022
:10233800012010BD0000002028000020040000201B
:1023480010B5032001F03CFB0620FFF7D1FF10B1C8
:102358000124204610BD0446FFF70EFEF9E70000F1
:10236800034A1368034909680B441360704700BFA8
:102378000C07002000000020014B1868704700BFC0
:102388000C07002038B50446FFF7F6FF0546B4F100
:10239800FF3F02D0044B1B681C44FFF7EDFF401BB6
:1023A800A042FAD338BD00BF00000020124BDA6803
:1023B80002F00302DB68C3F303130133032A11D0CD
:1023C8000E48B0FBF3F00C4BDB68C3F3062303FBAA
:1023D80000F0094BDB68C3F3416301335B00B0FBDA
:1023E800F3F070470548B0FBF3F0034BDB68C3F329
:1023F800062303FB00F0ECE7001002400024F40081
:10240800002800F0548270B582B00446036813F0C7
:10241800010F37D0A44A936803F00C03D26802F086
:1024280003020C2B23D0082B23D06368B3F5803F1D
:102438004ED0B3F5A02F51D09B4B1A6822F48032AE
:102448001A601A6822F480221A606368002B52D03E
:10245800FFF792FF0546944B1B6813F4003F11D118
:10246800FFF78AFF401B6428F5D9032028E2032AD6
:10247800D9D18D4B1B6813F4003F03D06368002B40
:1024880000F01782236813F0020F5DD0864A936824
:1024980003F00C03D26802F003020C2B3AD0042B91
:1024A8003AD0E368002B75D07F4A136843F48073F1
:1024B8001360FFF761FF05467B4B1B6813F4806FC1
:1024C8005FD1FFF759FF401B0228F5D90320F7E138
:1024D800754A136843F480331360B6E703F1804309
:1024E800A3F53C331A6842F480221A601A6842F451
:1024F80080321A60A9E7FFF73FFF05466A4B1B6861
:1025080013F4003FBED0FFF737FF401B6428F5D90E
:102518000320D5E1022AC2D1634B1B6813F4806FF4
:1025280003D0E368002B00F0C6815F4A536823F0AC
:10253800FE43216943EA016353605C4B1868FFF767
:10254800D7FE002840F0B981236813F0080F4CD05B
:1025580063699BB3544AD2F8943043F00103C2F83C
:102568009430FFF709FF05464F4BD3F8943013F02A
:10257800020F3AD1FFF700FF401B0228F4D90320CD
:102588009EE1494A536823F0FE43216943EA016307
:102598005360D9E7444A136823F480731360FFF744
:1025A800EBFE0546404B1B6813F4806FCCD0FFF759
:1025B800E3FE401B0228F5D9032081E13A4AD2F80C
:1025C800943023F00103C2F89430FFF7D5FE054696
:1025D800354BD3F8943013F0020F06D0FFF7CCFE3A
:1025E800401B0228F4D903206AE1236813F0040F82
:1025F80000F081802C4B9B6D13F0805F36D12A4B05
:102608009A6D42F080529A659B6D03F08053019356
:10261800019B0125264B1B6813F4807F28D0A368F3
:10262800012B39D0052B45D01F4BD3F8902022F031
:102638000102C3F89020D3F8902022F00402C3F8D6
:102648009020A368002B43D0FFF796FE0646164B52
:10265800D3F8903013F0020F4CD1FFF78DFE801B9A
:1026680041F288339842F2D9032029E10025D1E7C5
:102678000F4A136843F480731360FFF77DFE064624
:102688000B4B1B6813F4807FC9D1FFF775FE801BC5
:102698000228F5D9032013E1034AD2F8903043F019
:1026A8000103C2F89030CCE700100240040000207B
:1026B800007000408A4BD3F8902042F00402C3F81F
:1026C8009020D3F8902042F00102C3F89020B8E798
:1026D800FFF752FE0646824BD3F8903013F0020FF4
:1026E80008D0FFF749FE801B41F288339842F2D99F
:1026F8000320E5E0E5B9236813F0200F35D0A3697E
:10270800E3B1774AD2F8983043F00103C2F8983021
:10271800FFF732FE0546724BD3F8983013F0020FDC
:1027280023D1FFF729FE401B0228F4D90320C7E074
:102738006B4A936D23F080539365DCE7684AD2F8BF
:10274800983023F00103C2F89830FFF715FE0546CC
:10275800634BD3F8983013F0020F06D0FFF70CFE46
:10276800401B0228F4D90320AAE0E369002B00F0FB
:10277800A6805B4A926802F00C020C2A69D0022BF0
:102788001DD0574B1A6822F080721A60DA6822F05E
:102798000302DA60DA6822F0887222F48032DA60A2
:1027A800FFF7EAFD04464E4B1B6813F0007F4ED03E
:1027B800FFF7E2FD001B0228F5D9032080E0484A14
:1027C800136823F080731360FFF7D6FD0546444B6A
:1027D8001B6813F0007F06D0FFF7CEFD401B0228D0
:1027E800F5D903206CE03E4AD3683E491940236A74
:1027F800606A013843EA0013A06A43EA0023206BA9
:102808004008013843EA4053606B4008013843EA06
:102818004063E06A43EAC0631943D160136843F038
:1028280080731360D36843F08073D360FFF7A4FD0F
:1028380004462B4B1B6813F0007F06D1FFF79CFD65
:10284800001B0228F5D903203AE0002038E00020D8
:1028580036E0012B36D0224BDB6803F00301226AF5
:10286800914231D103F0F002616A0139B2EB011FE4
:102878002CD103F4FE42A16AB2EB012F28D103F058
:102888007842E16AB2EBC16F24D103F4C001226B34
:102898005208013AB1EB425F1ED103F0C063626B8C
:1028A8005208013AB3EB426F18D1002008E001202A
:1028B8007047012004E0012002E0012000E0002030
:1028C80002B070BD0120FBE70120F9E70120F7E71E
:1028D8000120F5E70120F3E70120F1E70120EFE708
:1028E800001002400C809F011E4B9B6803F00C03F4
:1028F800042B33D01B4B9B6803F00C03082B2FD001
:10290800184B9B6803F00C030C2B01D00020704778
:10291800144BDA6802F00302DB68C3F303130133D4
:10292800032A11D01048B0FBF3F00E4BDB68C3F359
:10293800062303FB00F00B4BDB68C3F34163013351
:102948005B00B0FBF3F070470748B0FBF3F0054BB2
:10295800DB68C3F3062303FB00F0ECE7024870478B
:1029680001487047001002400024F400002800F0DD
:10297800E680F8B50C460546744B1B6803F00F0358
:102988008B420BD2714A136823F00F030B43136079
:10299800136803F00F038B4240F0D3802E6816F0C3
:1029A80001065FD06B68032B2FD0022B4DD0684BEC
:1029B8001B6813F4806F00F0C680FFF795FF654B26
:1029C80098424DD9624A936823F0F00343F080039C
:1029D800936080265E4A936823F0030369680B437B
:1029E8009360FFF7C9FC0746594B9B6803F00C033B
:1029F8006A68B3EB820F35D0FFF7BEFCC01B41F20B
:102A080088339842F0D9032078E0514B1B6813F0C3
:102A1800007F01D1012071E0FFF7C8FC4D4B9842BF
:102A28001AD94B4B9B6813F0F00F05D02E6816F09F
:102A38000206CFD0AB688BB9454A936823F0F00300
:102A480043F0800393608026C4E7414B1B6813F46E
:102A5800003FB2D1012051E00026BBE70026B9E7CC
:102A68000026B7E72B6813F0020F48D013F0040FC5
:102A780004D0374A936843F4E06393602B6813F0FB
:102A8800080F06D0324A936823F47C5343F4E0637A
:102A980093602F4A936823F0F003A9680B4393606F
:102AA8002A4B1B6803F00F03A34230D82B6813F09E
:102AB800040F06D0264A936823F4E063E9680B43C1
:102AC80093602B6813F0080F07D0214A936823F40A
:102AD8006053296943EAC1039360FFF705FF1C4B64
:102AE8009B68C3F303131C4AD35C03F01F03D8404D
:102AF8001A4B18601A4B1868FFF7FAFBF8BD802EBE
:102B0800CED1134A936823F0F0039360C8E70F4AC5
:102B1800136823F00F0323431360FFF72DFC0646C9
:102B28000A4B1B6803F00F03A342BFD0FFF724FC36
:102B3800801B41F288339842F2D90320DEE7012056
:102B480070470120DAE70120D8E700BF00200240E3
:102B58000010024000B4C40468A300082800002044
:102B680004000020014B1868704700BF28000020AF
:102B780008B5FFF7F7FF054B9B68C3F30223044A28
:102B8800D35C03F01F03D84008BD00BF001002400B
:102B980060A3000808B5FFF7E5FF054B9B68C3F382
:102BA800C223044AD35C03F01F03D84008BD00BF0A
:102BB8000010024060A30008F0B583B00446036823
:102BC80013F4002F6ED0354B9B6D13F0805F1ED130
:102BD800324B9A6D42F080529A659B6D03F0805398
:102BE8000193019B01262E4A136843F480731360F6
:102BF800FFF7C2FB05462A4B1B6813F4807F08D1F8
:102C0800FFF7BAFB401B0228F5D9032502E000268E
:102C1800E9E7002545BB214BD3F8903013F4407306
:102C280015D0226D9A4212D01C4AD2F8903023F463
:102C38004073D2F8901041F48031C2F89010D2F865
:102C4800901021F48031C2F89010C2F8903013F03F
:102C5800010F10D145B9114AD2F8903023F44073CE
:102C6800216D0B43C2F89030EEB10C4A936D23F0FE
:102C78008053936517E0FFF77FFB0746074BD3F8B0
:102C8800903013F0020FE5D1FFF776FBC01B41F23D
:102C980088339842F2D90325DCE700BF00100240D0
:102CA800007000400025236813F0010F08D09F4AE8
:102CB800D2F8883023F0030361680B43C2F88830E8
:102CC800236813F0020F08D0984AD2F8883023F00E
:102CD8000C03A1680B43C2F88830236813F0040F73
:102CE80008D0924AD2F8883023F03003E1680B43C9
:102CF800C2F88830236813F0080F08D08B4AD2F83E
:102D0800883023F0C00321690B43C2F88830236858
:102D180013F0100F08D0854AD2F8883023F4407396
:102D280061690B43C2F88830236813F0200F08D07C
:102D38007E4AD2F8883023F44063A1690B43C2F875
:102D48008830236813F0400F08D0784AD2F88830CA
:102D580023F44053E1690B43C2F88830236813F029
:102D6800800F08D0714AD2F8883023F44043216A92
:102D78000B43C2F88830236813F4807F08D06B4A6D
:102D8800D2F8883023F44033616A0B43C2F88830A4
:102D9800236813F4003F08D0644AD2F89C3023F02B
:102DA8000303A16A0B43C2F89C30236813F4007F25
:102DB80008D05E4AD2F8883023F44023E16A0B43F6
:102DC800C2F88830236813F4806F0CD0574AD2F8C1
:102DD800883023F44013216B0B43C2F88830236BEF
:102DE800B3F5801F79D0236813F4006F0CD04F4AD5
:102DF800D2F8883023F44003616B0B43C2F8883063
:102E0800636BB3F5800F6DD0236813F4805F0CD02B
:102E1800464AD2F8883023F04073A16B0B43C2F8BE
:102E28008830A36BB3F1807F61D0236813F4005F0F
:102E38000CD03E4AD2F8883023F04063E16B0B4354
:102E4800C2F88830E36BB3F1006F55D0236813F4F0
:102E5800804F0CD0354AD2F8883023F04063216C7B
:102E68000B43C2F88830236CB3F1006F49D0236854
:102E780013F4004F0CD02D4AD2F8883023F0405379
:102E8800616C0B43C2F88830636CB3F1805F3DD04E
:102E9800236813F4803F0CD0244AD2F8883023F0FA
:102EA8004043A16C0B43C2F88830A36CB3F1804F48
:102EB80031D0236813F4802F0CD01C4AD2F89C30F0
:102EC80023F44013E16C0B43C2F89C30E36CB3F578
:102ED800001F25D0284603B0F0BDD36843F4801303
:102EE800D36080E7D36843F48013D3608CE7D3685A
:102EF80043F48013D36098E7D36843F48013D36016
:102F0800A4E7D36843F48013D360B0E7D36843F4ED
:102F18008033D360BCE7D36843F48033D360C8E719
:102F2800D36843F48013D360D4E700BF0010024095
:102F380010B4064C616941F0010161610260BFF3A0
:102F48006F8F43605DF8044B704700BF002002405C
:102F5800094A536943F480235361EFF3108C72B626
:102F6800402351F8042B40F8042B013B13F0FF03D6
:102F7800F7D18CF31088704700200240094B5B6939
:102F8800002B01DB00207047064B074A9A6002F1CC
:102F980088329A605B69002B01DB002070470120B2
:102FA800704700BF0020024023016745054B5A695E
:102FB80042F000425A615B69002B01DB0120704737
:102FC800002070470020024038B50546FFF7D4F9C5
:102FD8000446134B1B6913F4803F06D0FFF7CCF966
:102FE800001BA842F5D9032038BD0D4B1B694CF2D4
:102FF800FA32134009D10A4B1B6913F0010F0CD0A8
:10300800074B01221A610020EEE706494A681A4375
:103018004A60034A13610120E6E70020E4E700BFA5
:103028000020024008000020F8B516461B4A127816
:10303800012A31D004460D461F46184B01221A704A
:103048004FF47A70FFF7C0FF80B9144B58608CB109
:10305800631E012B15D900244FF47A70FFF7B4FFD3
:1030680024B10F4A536923EA040353610B4B00222E
:103078001A70F8BD32463B462846FFF759FF01242F
:10308800EAE731462846FFF763FF022C01D0002407
:10309800E2E74FF48024DFE70220EAE70800002097
:1030A80000200240114B1B6A13F4800F10D010F05F
:1030B800010F04D00D4A536943F00403536110F023
:1030C800020F0CD0094A536943F40043536106E0E8
:1030D800064A536943F4004343F004035361034A27
:1030E800536943F480335361704700BF00200240A6
:1030F800154B1B6A13F4800F16D1134A536923F436
:1031080000635361104B5A6922F47E72C00000F4C8
:10311800FF6002435A615A6942F002025A615A69D1
:1031280042F480325A61704711F0010F05D0064A07
:10313800536923F400635361E4E7034A536943F492
:1031480000635361DEE700BF00200240164B1B7F7F
:10315800DBB2012B01D0032B10D1144A116821F4E2
:1031680000711160116841F400611160116821F467
:1031780000611160116841F400711160023BDBB21B
:10318800012B03D9084B00221A777047074B1A689E
:1031980042F480521A601A6822F480521A601A683F
:1031A80042F480621A60EDE7080000200020024027
:1031B800F8B53A4B1B78012B6DD004460E46374BB9
:1031C80001221A704FF47A70FFF7FEFE07460028B6
:1031D8005CD1324B00225A60314B1B6813F4007FDC
:1031E8002FD02F4B1B6813F4806F26D02C4A1368FE
:1031F80023F480631360294B03221A772368012B79
:1032080031D04FF0FF333360A568A368E2681344F8
:10321800AB4239D961682846FFF76AFF4FF47A70E4
:10322800FFF7D2FE1E4A536923F47E7323F002038C
:103238005361074638BB0135E7E7184B01221A7777
:10324800DCE7174B1B6813F4806F08D0144A136827
:1032580023F480631360114B02221A77CEE70F4BD9
:1032680000221A77CAE76068FFF71CFF4FF47A70EC
:10327800FFF7AAFE07460A4A536923F4004323F0DE
:103288000403536100E03560FFF760FF034B002241
:103298001A703846F8BD0227FBE700BF0800002077
:1032A80000200240F0B583B0002362E085685E002C
:1032B8000324B44025EA0405CC68B4402C43846058
:1032C800456825EA0C054C68C4F300149C402C435F
:1032D80044605FE0DD08083550F8254003F0070C2E
:1032E8004FEA8C0C4FF00F0E0EFA0CFE24EA0E0E6D
:1032F8000C6904FA0CF444EA0E0440F8254060E036
:10330800052400E0002404FA0EF42C430CF1020C0E
:10331800554D45F82C40554CA568D44325EA02067E
:103328004F6817F4801F01D042EA05064F4DAE6082
:10333800ED6804EA05064F6817F4001F01D042EA59
:1033480005064A4DEE606D6804EA05064F6817F4F5
:10335800003F01D042EA0506444D6E602D682C40BE
:103368004E6816F4803F01D042EA05043F4A1460D3
:1033780001330A6832FA03F474D04FF0010C0CFAE6
:1033880003FC1CEA0202F3D04C6804F00304013C7D
:10339800012C8BD94C6804F00304032C0CD0C468AE
:1033A8005D004FF0030C0CFA05FC24EA0C0C8C6849
:1033B800AC4044EA0C04C4604C6804F00304022CDA
:1033C80088D004684FEA430E4FF0030C0CFA0EFC49
:1033D80024EA0C0C4C6804F0030404FA0EF444EAE2
:1033E8000C0404604C6814F4403FC1D0204C256E96
:1033F80045F001052566246E04F001040194019C42
:103408004FEA930C0CF10205174C54F8255003F0C1
:10341800030E4FEA8E0E0F2404FA0EF425EA040573
:10342800B0F1904F3FF46EAF124CA04212D004F5A9
:103438008064A04210D004F58064A0420ED004F548
:103448008064A0420CD004F58064A0423FF458AFD9
:10345800062458E7012456E7022454E7032452E7D8
:10346800042450E703B0F0BD00000140000401400F
:10347800001002400004004830B4C46C056D65605B
:10348800446D14B1846DC56D6560446C04F01F0C07
:10349800012404FA0CF4056C6C60046863608368AA
:1034A800102B05D0036899600368DA6030BC704758
:1034B80003689A600368D960F8E7000003680C4A5B
:1034C800934213D80B49DBB2083B0B4AA2FB0323F8
:1034D800426C22F003020A448264084AC264C3F3BD
:1034E8000413012202FA03F3036570470449EAE76B
:1034F8000704024000080240CDCCCCCC8008024032
:10350800200802400379074A1A4492004265064A95
:103518008265013B03F01F03012202FA03F3C3652E
:10352800704700BF3F8200104009024000285BD06E
:1035380010B5044601682D4B99423DD82C4B0B44DD
:103548002C4AA2FB03231B099B0043642A4B0364F8
:10355800022384F825300A6822F4FF4222F0700220
:10356800A368E06803432069034360690343A069D3
:103578000343E0690343206A034313430B60204677
:10358800FFF79CFFA368B3F5804F20D0A36C227986
:103598001A60E36C226D5A606368013B032B19D9EA
:1035A80000236365A365E3650020E063012384F8D5
:1035B800253084F8240010BD104B0B440D4AA2FBA3
:1035C80003231B099B0043640D4B0364C0E70023DE
:1035D8006360DBE72046FFF795FF636D00221A6002
:1035E800A36DE26D5A60DFE70120704707040240CF
:1035F800F8FFFDBFCDCCCCCC00000240F8FBFDBFEE
:103608000004024070B5044690F82400012820D038
:10361800012084F8240094F82500C0B2012804D0C1
:10362800002384F82430022070BD022084F825008D
:103638000025E5632668306820F0010030602046E8
:10364800FFF71AFF2268136843F001031360284646
:10365800EAE70220E8E738B5044690F82400012894
:1036680041D0012084F8240094F82500C0B2012834
:1036780004D0002384F82430022038BD022084F8C6
:1036880025000020E0632568286820F001002860F4
:103698002046FFF7F1FE236BD3B12268136843F08D
:1036A8000E031360A36C1A6812F4803F03D01A68E3
:1036B80042F480721A60636D1BB11A6842F480721A
:1036C8001A602268136843F0010313600020D4E7EE
:1036D8002268136823F0040313602268136843F018
:1036E8000A031360DEE70220C7E7034690F82520A7
:1036F800D2B2022A09D00422C2630120012283F82F
:103708002520002283F82420704701680A6822F0E7
:103718000E020A60816C0A6822F480720A600168ED
:103728000A6822F001020A60426C02F01F01006C74
:1037380001228A404260DA6C196D51605A6D42B1BB
:10374800116821F4807111609A6DD96D5160002063
:10375800D4E70020D2E738B5036C196804682568F7
:10376800436C03F01F0304229A400A4215D015F057
:10377800040F12D0236813F0200F03D1236823F01D
:1037880004032360436C03F01F02016C042393407D
:103798004B60036B03B1984738BD02229A400A4236
:1037A8001CD015F0020F19D0236813F0200F06D192
:1037B800236823F00A032360012380F82530436C33
:1037C80003F01F02016C022393404B60002380F832
:1037D8002430C36A002BDFD09847DDE7082202FABD
:1037E80003F30B42D8D015F0080FD5D0236823F087
:1037F8000E032360436C03F01F03016C012202FADD
:1038080003F34B60C26380F82520002380F824303E
:10381800436B002BC0D09847BEE7C06B70470000D1
:10382800002836D13E4B1B6803F4C063B3F5806FA4
:1038380008D03B4AD2F8803023F48073C2F8803035
:1038480000207047364AD2F8803023F48073C2F8DB
:103858008030136823F4C06343F400731360314B62
:103868001B68322202FB03F32F4AA2FB03239B0CA3
:10387800013300E0013B2A4A526912F4806F01D0FB
:10388800002BF7D1264B5B6913F4806F44D10020DD
:103898007047B0F5007F08D0214A136823F4C0634D
:1038A80043F480631360002070471D4B1B6803F4CA
:1038B800C063B3F5806F08D0194AD2F8803043F45A
:1038C8008073C2F8803000207047154AD2F88030E3
:1038D80043F48073C2F88030136823F4C06343F460
:1038E800007313600F4B1B68322202FB03F30E4A6E
:1038F800A2FB03239B0C013300E0013B084A5269F9
:1039080012F4806F01D0002BF7D1054B5B6913F4DB
:10391800806F03D100207047032070470320704751
:10392800007000402800002083DE1B43024A936891
:1039380043F480439360704700700040002807DB21
:1039480000F01F02400901239340024A42F8203048
:10395800704700BF00E100E0002808DB0901C9B298
:1039680000F1604000F5614080F80013704700F0F6
:103978000F000901C9B2014B1954704714ED00E05A
:1039880000B500F00700C0F1070CBCF1040F28BF18
:103998004FF0040C031D062B0FD9C31E4FF0FF3E3A
:1039A8000EFA0CF021EA000199400EFA03FE22EA11
:1039B8000E0241EA02005DF804FB0023EEE7000076
:1039C800074AD36823F4E0631B041B0C000200F4CD
:1039D800E060034343F0BF6343F40033D3607047B0
:1039E80000ED00E010B50446054BD868C0F302208E
:1039F800FFF7C6FF01462046FFF7AEFF10BD00BF28
:103A080000ED00E008B5FFF799FF08BD0138B0F1F7
:103A1800807F0BD24FF0E0235861054AF02182F8ED
:103A280023100020986107221A617047012070470F
:103A380000ED00E030B583B000230193002800F0CA
:103A48003181044603681B68002BC0F22E81437F36
:103A580023B32168086800F40000A3686268134370
:103A680062691343E2681343226913430D68914A5C
:103A78002A401A430A602268136813F4000F18D00A
:103A8800B8B98D4B1B689B098C49A1FB03139B0993
:103A9800013303EB83039B00019307E00377036281
:103AA800FDF7C4FBD5E7019B013B0193019B002B6C
:103AB800F9D1834B9A4212D004339A4224D004336A
:103AC8009A4224D004339A4224D004339A4224D010
:103AD80004339A4201D0022303E0012301E04FF4AA
:103AE8000013A16911F0030F00F0B28011F0100F5C
:103AF8002AD074498A4213D004318A4210D07249BC
:103B08008A681A438A600FE04FF48003E9E74FF0B0
:103B18000053E6E74FF08043E3E74FF00043E0E768
:103B280069498A6A1A438A62A26912F0200F2BD067
:103B3800226864498A4219D004318A4216D06249FF
:103B4800CA681A43CA6015E05E498A4208D004313F
:103B58008A4205D05C498A6822EA03028A60E3E760
:103B680059498A6A22EA03028A62DDE75649CA6A23
:103B78001A43CA62226853498A4218D004318A42D9
:103B880015D0514A536114E022684E498A4208D040
:103B980004318A4205D04C49CA6822EA0302CA6045
:103BA800E8E74949CA6A22EA0302CA62E2E7464AE2
:103BB8005363A26912F0020F1FD0226841498A425A
:103BC80007D004318A4204D03F494A681A434A6000
:103BD80003E03D494A6A1A434A62A26912F0010F9A
:103BE80023D0226837498A421AD004318A4217D032
:103BF80035490A6813430B604DE0226831498A420F
:103C080008D004318A4205D02F494A6822EA0302C3
:103C18004A60E2E72C494A6A22EA03024A62DCE780
:103C280029490A6A13430B6235E0226825498A420A
:103C380008D004318A4205D023490A6822EA0303DE
:103C48000B6028E020490A6A22EA03030B6222E09B
:103C58001C498A4208D004318A4205D01A494A6868
:103C680022EA03024A6004E017494A6A22EA030288
:103C78004A62226813498A4208D004318A4205D030
:103C880011490A6822EA03030B6004E00E490A6A34
:103C980022EA03030B62637F03F0FF003BB90123B1
:103CA800637700E0012003B030BD0120FBE700206E
:103CB800F9E700BF0F7E00FF28000020632D3E05B6
:103CC80000020140140201400004014008B50368E5
:103CD800204A934212D0043293421ED004329342B7
:103CE8001ED0043293421ED0043293421ED00432B6
:103CF800934201D0022203E0012201E04FF40012B6
:103D080015498B4215D004318B4212D0134B5B6995
:103D180032EA030319D1012311E04FF48002EFE7DF
:103D28004FF00052ECE74FF08042E9E74FF00042D5
:103D3800E6E70A4B5B6B32EA030306D10223022B48
:103D480004D0064B5A61FCF7A7FA08BD034B5A6327
:103D5800F9E700BF000201401402014000040140DD
:103D680070B110B50446037933B1022323710020E2
:103D780020610123237110BD4371FDF7F9FBF4E7BE
:103D8800012070474379012B00F0EC802DE9F041C8
:103D980004460E46154601234371022303718B68BE
:103DA800042B16D0F369012B5DD02368DF6B05F077
:103DB80010050723AB4027EA0307B369012B5FD03F
:103DC800022B00F0B7807369002B40F0B580012109
:103DD80057E0FEF7D1FA07467DB123685B6B002BED
:103DE8003ADAFEF7C9FAC01B0128F6D9236943F06D
:103DF80008032361032020719AE023685B6B13F4A6
:103E0800004F0BD0FEF7B8FAC01B0128F5D923697B
:103E180043F0080323610320207189E00120FEF7A5
:103E2800B1FA2368726A1A642068836C05F010027C
:103E380040F2FF31914023EA0103B16A91400B43FC
:103E480083642068C36CFF21914023EA0103F16A6F
:103E580091400B43C364A5E70120FEF793FA23685A
:103E6800726A5A64E0E721688A6B05F010001F2324
:103E7800834022EA0302336A834013438B6394E747
:103E88000021B368726913430B434FF48072AA4050
:103E980027EA02073279012A50D000221A434FF448
:103EA8000073AB4027EA03077379012B49D04FF021
:103EB800000848EA020827F440473368022B43D039
:103EC8001F4308FA05F848EA07072268D7632168FC
:103ED8000B684FF48042AA4023EA02030B60216872
:103EE8000A6840F6FE73AB4022EA0302F368AB406F
:103EF80013430B6021680B68C022AA4023EA02031F
:103F08000B60F368C3F3830233699B081B0203F455
:103F1800706313432068026E40F60F71A94022EACD
:103F28000102AB4013430366012323710020607133
:103F3800BDE8F0810121A4E70021A2E74FF48072D7
:103F4800ACE74FF40078B4E7FEF70CFE064B984256
:103F580002D947F40047B4E7044B9842B1D947F473
:103F68008047AEE7022070470068890900B4C4049E
:103F780010B402681D4B9A4228D01D491D4B9A4225
:103F880026D00164D2F8803023F4F813446B43EA56
:103F98000443C2F8803001F1700343640268D2F828
:103FA800803023F07063846B43EA0463C2F8803086
:103FB80001F1B003836401F5C473C36401F5187398
:103FC800036501F51E7343650B4607E00A49D5E70B
:103FD80001F5D461D5E7002243F8042B01F55472AA
:103FE8009A42F8D85DF8044B704700BF006800405B
:103FF80000A40040006C004050A70040002800F0DA
:10400800E38038B5044690F85C30D3B122689369F0
:1040180023F010039361FEF7AFF9054623689A6908
:1040280012F0080F12D0FEF7A7F9401B0A28F5D99D
:10403800236E43F001032366032384F85C300120D8
:1040480038BD80F85D30FDF75FFBDFE79A6942F025
:1040580001029A61FEF790F9054623689A6912F001
:10406800010F0DD1FEF788F9401B0A28F5D9236EF8
:1040780043F001032366032384F85C300120DFE763
:104088009A6942F002029A612268504B9A4242D0E1
:10409800237C012B45D02268936943F04003936148
:1040A800637C012B43D02268936923F48043936196
:1040B800A37C012B41D02268936943F48053936118
:1040C8002268936923F44073A1680B4393612268C3
:1040D800936923F0A40393612268136923F0100302
:1040E8001361E368012B2ED0002B31D0022B54D062
:1040F8002268936943F0800393612268136943F04F
:1041080010031361E368032B22D12268936943F0FB
:10411800200393611CE06268A3F58063C3F800255F
:10412800B6E72268936923F040039361B8E72268F1
:10413800936943F480439361BAE72268936923F44F
:1041480080539361BCE72268936943F00403936149
:10415800A3695A1EE369013B1B0243EA4263226AD0
:10416800013A13436269013A216843EA0243CB6189
:10417800A368B3F5407F16D02268D2F8C030E16B4F
:104188000B43C2F8C0302046FFF7F2FE0020A065BE
:104198002066012384F85C3052E72268936943F073
:1041A80020039361D4E7A36A013BE26A013A43EA38
:1041B8000223226B013A43EA0213626A013A216838
:1041C80043EA0243CB60D7E7012070470064004010
:1041D80090F85C30013BDBB2012B05D9036E43F04C
:1041E80002030366012070470B68A3B110B4CA68C4
:1041F8000B6943EA42724B698C6843EA8473406CEA
:10420800496800EBC10C40F83120CCF8043000209C
:104218005DF8044B70478A68CB68DB0643EA827313
:104228000A6943EA02434A691343026C496842F83F
:1042380021300020704790F85CC05FFA8CFCBCF11C
:10424800010F05D0036E43F0040303660120704795
:1042580010B40468D4F8800020F03F00920042EACD
:10426800011242EA4303019A1A430243C4F8802028
:1042780000205DF8044B704790F85C30DBB2012BEE
:1042880005D0036E43F00403036601207047022340
:1042980080F85C300268936923F00103936100237E
:1042A80003661846704790F85C30013BDBB2012B7F
:1042B80005D9036E43F0020303660120704770B40A
:1042C8000468A36D11F0070602D013F0010F23D084
:1042D80011F0380F02D013F0020F1DD011F4E07F57
:1042E80002D013F0040F17D011F4F05F02D013F0CE
:1042F800080F11D011F4604F02D013F0100F0BD03B
:1043080011F4403F02D013F0200F05D011F47C0FB8
:1043180006D013F0400F03D1E56D45F00105E565C2
:1043280016B113F0010F23D111F0380F02D013F09A
:10433800020F1DD111F4E07F02D013F0040F17D142
:1043480011F4F05F02D013F0080F11D111F4604F8F
:1043580002D013F0100F0BD111F4403F02D013F02C
:10436800200F05D111F47C0F07D013F0400F04D0B3
:104378000468E36D43F00203E36511F0800F05D094
:104388000468D4F8DC301343C4F8DC3011F4807FBF
:1043980005D00468D4F8E0301343C4F8E03002686C
:1043A800536D0B435365002070BC7047002859D0EB
:1043B80010B5044690F84130002B43D0242384F8EC
:1043C80041302268136823F0010313606368226890
:1043D80023F0706313612268936823F400439360A9
:1043E800E368012B33D0A368226843F40443936045
:1043F800E368022B31D02268536843F0007343F41A
:10440800004353602268D36823F40043D3602369D0
:1044180062691343A169226843EA0123D360E3690F
:10442800216A22680B4313602268136843F0010372
:10443800136000206064202384F84130206384F8EE
:10444800420010BD80F84030FDF71CFAB6E7A368BB
:10445800226843F400439360CAE723684FF400627C
:104468005A60C8E701207047034690F84120D2B24D
:10447800202A23D190F84020012A21D0012280F857
:104488004020242280F841200068026822F00102BE
:1044980002601868026822F4805202601868026894
:1044A8001143016019680A6842F001020A6020227B
:1044B80083F84120002083F84000704702207047AD
:1044C80002207047034690F84120D2B2202A21D119
:1044D80090F84020012A1FD0012280F84020242291
:1044E80080F841200068026822F001020260186822
:1044F800026822F4706242EA0122026019680A68BE
:1045080042F001020A60202283F84120002083F84B
:1045180040007047022070470220704730B4036A99
:1045280023F001030362026A4468836923F4803339
:1045380023F073030D681D4322F002028B681343B6
:10454800204A904213D002F5006290420FD002F543
:10455800406290420BD002F58062904207D002F58B
:104568008062904203D002F50062904205D123F0A8
:104578000803CA681A4322F00403124A904213D06F
:1045880002F5006290420FD002F5406290420BD0D3
:1045980002F58062904207D002F58062904203D013
:1045A80002F50062904205D124F440744A6922431E
:1045B8008C691443446085614A684263036230BC75
:1045C800704700BF002C014030B4036A23F48073A5
:1045D8000362036A4468C26922F4803222F07302DB
:1045E8000D68154323F400738A6843EA02231C4AC2
:1045F800904207D002F50062904203D002F5E052E3
:10460800904206D123F40063CA6843EA022323F4E4
:104618008063134A904213D002F5006290420FD093
:1046280002F5406290420BD002F58062904207D0BA
:1046380002F58062904203D002F50062904207D1F1
:1046480024F440524C6942EA04128C6942EA041488
:104658004460C5614A68C263036230BC704700BFEA
:10466800002C014030B4036A23F480530362036AC8
:104678004468C26922F0807222F4E6420D6842EA78
:10468800052223F400538D6843EA05331B4DA842E5
:1046980007D005F50065A84203D005F5E055A84206
:1046A80006D123F40043CD6843EA053323F480435D
:1046B800124DA84213D005F50065A8420FD005F5A4
:1046C8004065A8420BD005F58065A84207D005F5DE
:1046D8008065A84203D005F50065A84207D124F4F7
:1046E800404C4C694CEA841C8C694CEA8414446044
:1046F800C2614A680264036230BC7047002C014002
:1047080030B4036A23F480330362036A4468026D99
:1047180022F4803222F070020D68154323F400332E
:104728008A6843EA0243114A904213D002F50062B4
:1047380090420FD002F5406290420BD002F58062A1
:10474800904207D002F58062904203D002F50062E1
:10475800904204D124F480344A6944EA0224446033
:1047680005654A688264036230BC7047002C0140CA
:1047780030B4036A23F480130362036A4468026D49
:1047880022F0807222F4E0420D6842EA052223F406
:1047980000138D6843EA0553114DA84213D005F55F
:1047A8000065A8420FD005F54065A8420BD005F575
:1047B8008065A84207D005F58065A84203D005F5B5
:1047C8000065A84204D124F480244D6944EA852474
:1047D800446002654A68C264036230BC704700BF27
:1047E800002C014010B4036A046A24F00104046236
:1047F800846924F0F00C4CEA021223F00A030B43FC
:10480800826103625DF8044B704710B4036A23F0B9
:10481800100303628469036A24F4704C4CEA023280
:1048280023F0A00343EA0113826103625DF8044B9D
:104838007047836823F4401323F070030B4343F05D
:104848000703836070477047704700000368364A63
:10485800904216D0B0F1804F13D0A2F59432904216
:104868000FD002F5806290420BD002F58062904230
:1048780007D002F59432904203D002F5E0529042FC
:1048880003D123F070034A681343274A904222D089
:10489800B0F1804F1FD0A2F5943290421BD002F5A0
:1048A8008062904217D002F58062904213D002F5E0
:1048B800943290420FD002F5406290420BD002F53C
:1048C8008062904207D002F58062904203D002F5E0
:1048D8000062904203D123F44073CA68134323F063
:1048E80080034A69134303608B68C3620B68836261
:1048F8000D4B984213D003F5006398420FD003F58F
:10490800406398420BD003F58063984207D003F5C3
:104918008063984203D003F50063984201D10B6984
:104928000363012343617047002C014060B310B555
:10493800044690F83D3013B3022384F83D302146F5
:1049480051F8040BFFF782FF012384F8483084F8FC
:104958003E3084F83F3084F8403084F8413084F8A1
:10496800423084F8433084F8443084F8453084F881
:10497800463084F8473084F83D30002010BD80F878
:104988003C30FDF733F8D7E70120704760B310B526
:10499800044690F83D3013B3022384F83D30214695
:1049A80051F8040BFFF752FF012384F8483084F8CC
:1049B8003E3084F83F3084F8403084F8413084F841
:1049C800423084F8433084F8443084F8453084F821
:1049D800463084F8473084F83D30002010BD80F818
:1049E8003C30FFF730FFD7E70120704760B310B5C0
:1049F800044690F83D3013B3022384F83D30214635
:104A080051F8040BFFF722FF012384F8483084F89B
:104A18003E3084F83F3084F8403084F8413084F8E0
:104A2800423084F8433084F8443084F8453084F8C0
:104A3800463084F8473084F83D30002010BD80F8B7
:104A48003C30FFF701FFD7E70120704730B4036A15
:104A580023F010030362036A4468826922F08072BB
:104A680022F4E6420D6842EA052223F020038D680D
:104A780043EA05131B4DA84207D005F50065A84277
:104A880003D005F5E055A84206D123F08003CD6890
:104A980043EA051323F04003124DA84213D005F54D
:104AA8000065A8420FD005F54065A8420BD005F572
:104AB8008065A84207D005F58065A84203D005F5B2
:104AC8000065A84207D124F4406C4C694CEA840C78
:104AD8008C694CEA8404446082614A688263036298
:104AE80030BC7047002C014090F83C30012B36D088
:104AF80010B50446012380F83C30142A2AD8DFE890
:104B080002F00B29292910292929152929291A29C7
:104B180029291F29292924000068FFF7FFFC002004
:104B280019E00068FFF792FF002014E00068FFF723
:104B38004BFD00200FE00068FFF794FD00200AE01D
:104B48000068FFF7DDFD002005E00068FFF710FEB4
:104B5800002000E00120002384F83C3010BD022032
:104B6800704738B590F83C30012B00F0958004462A
:104B78000D46012380F83C30142A00F28880DFE8D3
:104B880002F00B8686861F86868634868686488649
:104B980086865D86868671000068FFF7BFFC2268FE
:104BA800936943F0080393612268936923F004032F
:104BB80093612268936929690B439361002067E038
:104BC8000068FFF743FF2268936943F40063936129
:104BD8002268936923F48063936122689369296941
:104BE80043EA01239361002052E00068FFF7ECFCE0
:104BF8002268D36943F00803D3612268D36923F09C
:104C08000403D3612268D36929690B43D361002067
:104C18003EE00068FFF726FD2268D36943F400638D
:104C2800D3612268D36923F48063D3612268D3698E
:104C3800296943EA0123D361002029E00068FFF7CE
:104C48005FFD2268136D43F0080313652268136D36
:104C580023F0040313652268136D29690B43136558
:104C6800002015E00068FFF783FD2268136D43F408
:104C7800006313652268136D23F48063136522684B
:104C8800136D296943EA01231365002000E0012020
:104C9800002384F83C3038BD0220FCE710B4846857
:104CA80024F47F4C42EA03220A4342EA0C0282605F
:104CB8005DF8044B7047000090F83C30012B00F081
:104CC8009B8010B50446012380F83C30022380F80D
:104CD8003D3002689068494B034093600B68702B25
:104CE80061D031D8502B78D00CD9602B2AD1CA6822
:104CF80049682068FFF789FD60212068FFF799FD62
:104D0800002038E0402B0AD1CA6849682068FFF7BC
:104D180069FD40212068FFF78CFD00202BE067D853
:104D2800202B07D003D9302B04D0012023E00BB16E
:104D3800102B05D119462068FFF77BFD00201AE0EB
:104D4800012018E0012016E0B3F5005F38D00ED935
:104D58002B4A9342EED015D92A4A9342EAD0103210
:104D68009342E7D0203A9342E4D0012003E0B3F520
:104D7800805F3FD10020012384F83D30002384F870
:104D88003C3010BD203A9342D4D004D91E4A9342F5
:104D9800D0D00120EFE7B3F5801FCBD0B3F1101FBF
:104DA800C8D00120E7E7CB684A6889682068FFF720
:104DB80075FF2268936843F0770393600020DAE771
:104DC800CB684A6889682068FFF768FF226893689B
:104DD80043F4804393600020CDE7CA68496820689F
:104DE800FFF700FD50212068FFF723FD0020C2E7F0
:104DF8000120C0E70120BEE7022070478800CEFFEF
:104E080040001000600010003000100001F01F0189
:104E18004FF0010C0CFA01FC036A23EA0C0303624D
:104E2800036A8A40134303627047000010B50446C2
:104E380010293DD8DFE801F0093C3C3C203C3C3CD3
:104E4800273C3C3C2E3C3C3C350090F83E30DBB2E5
:104E5800013B18BF0123002B40F09B80102900F272
:104E68008680DFE801F02C848484748484847884C8
:104E780084847C848484800090F83F30DBB2013BDA
:104E880018BF0123E7E790F84030DBB2013B18BFB9
:104E98000123E0E790F84130DBB2013B18BF012362
:104EA800D9E790F84230DBB2013B18BF0123D2E7C3
:104EB80090F84330DBB2013B18BF0123CBE7022354
:104EC80084F83E3001222068FFF7A0FF2368344AA7
:104ED800934213D002F5006293420FD002F540626C
:104EE80093420BD002F58062934207D002F58062AC
:104EF800934203D002F50062934203D15A6C42F404
:104F080000425A642368264A934234D0B3F1804F52
:104F180031D0A2F5943293422DD002F580629342AB
:104F280029D002F58062934225D002F5943293424B
:104F380021D002F5406293421DD002F5805293427F
:104F480019D01A6842F001021A60002022E00223F8
:104F580084F83F30B6E7022384F84030B2E70223F2
:104F680084F84130AEE7022384F84230AAE70223EE
:104F780084F84330A6E799680A4A0A40062A0AD004
:104F8800B2F5803F09D01A6842F001021A60002089
:104F980000E0012010BD0020FCE70020FAE700BF78
:104FA800002C01400700010010B5044610293DD827
:104FB800DFE801F0093C3C3C203C3C3C273C3C3CC5
:104FC8002E3C3C3C350090F83E30DBB2013B18BF2C
:104FD8000123002B40F0CE80102900F29B80DFE8EF
:104FE80001F02C99999979999999829999998B991C
:104FF8009999940090F83F30DBB2013B18BF012328
:10500800E7E790F84030DBB2013B18BF0123E0E747
:1050180090F84130DBB2013B18BF0123D9E790F883
:105028004230DBB2013B18BF0123D2E790F843308E
:10503800DBB2013B18BF0123CBE7022384F83E30E3
:105048002268D36843F00203D36001222068FFF787
:10505800DDFE23684B4A934213D002F50062934267
:105068000FD002F5406293420BD002F58062934262
:1050780007D002F58062934203D002F500629342A2
:1050880003D15A6C42F400425A6423683D4A934261
:1050980062D0B3F1804F5FD0A2F5943293425BD0D7
:1050A80002F58062934257D002F58062934253D052
:1050B80002F5943293424FD002F5406293424BD0AE
:1050C80002F58052934247D01A6842F001021A60F2
:1050D800002050E0022384F83F302268D36843F070
:1050E8000403D360B1E7022384F840302268D36810
:1050F80043F00803D360A8E7022384F8413022680C
:10510800D36843F01003D3609FE7022384F842304A
:10511800012030E0022384F843300C292CD801A365
:1051280053F821F0495000088151000881510008C6
:1051380081510008E350000881510008815100089E
:1051480081510008F550000881510008815100087C
:10515800815100080751000899680B4A0A40062A3D
:105168000CD0B2F5803F0BD01A6842F001021A60E9
:10517800002000E0012010BD0120FCE70020FAE734
:105188000020F8E7002C01400700010090F83C20BF
:10519800012A4CD030B40346012280F83C20022278
:1051A80080F83D20006842688468224DA84207D0F4
:1051B80005F50065A84203D005F5E055A84203D1DE
:1051C80022F470024D682A4322F0007222F0700225
:1051D8000D682A4342601A68164882421AD0B2F112
:1051E800804F17D0A0F59430824213D000F580602C
:1051F80082420FD000F5806082420BD000F59430D7
:10520800824207D000F54060824203D000F580500A
:10521800824204D124F080048968214391600122EC
:1052280083F83D20002083F83C0030BC7047022002
:10523800704700BF002C014010B50446226852E8B0
:10524800003F23F4F07342E800310029F6D12268C8
:1052580002F1080353E8003F23F0845323F00103CD
:10526800083242E800310029F1D1E36E012B4DD01C
:1052780023689B6813F0800F14D0226802F108039A
:1052880053E8003F23F08003083242E80031002948
:10529800F3D1A36F33B100229A63A06FFEF725FA0A
:1052A80000283DD123689B6813F0400F13D0226873
:1052B80002F1080353E8003F23F04003083242E8B4
:1052C80000310029F3D1E36F2BB100229A63E06F1C
:1052D800FEF70BFA70BB0023A4F85630A4F85E3032
:1052E80023680F221A62636EB3F1005F2CD0226824
:1052F800936943F0080393612023C4F88430C4F809
:1053080088300020E066C4F88C0010BD226852E89E
:10531800003F23F0100342E800310029F6D1A7E747
:10532800A06FFEF77AFA2028BCD11023C4F88C307D
:105338000320EAE7E06FFEF770FA2028CBD11023AC
:10534800C4F88C300320E0E72268936943F0100327
:105358009361CCE770B5044601688368026913431A
:1053680042691343C26913430868964A02401A43C4
:105378000A602268536823F44053E1680B43536082
:10538800A1692268904B9A4201D0236A1943936815
:1053980023F06E4323F430630B4393602268D36A8F
:1053A80023F00F03616A0B43D3622368874A934251
:1053B80010D0874A934221D0864A934237D0864AF2
:1053C80093425CD0854A93426BD07F4A93427DD00A
:1053D80010223AE002F55842D2F8882002F003027F
:1053E800032A09D8DFE802F00204870601222CE02C
:1053F80004222AE0082228E0102226E002F5E632FC
:10540800D2F8882002F00C020C2A0ED8DFE802F04D
:10541800070D0D0D090D0D0D750D0D0D0B0000225D
:1054280013E0042211E008220FE010220DE002F53B
:10543800E432D2F8882002F03002202A5FD01AD84D
:10544800002A5ED0102A5ED104225F498B4276D0B2
:10545800E069B0F5004F00F0C980082A00F23481F5
:10546800DFE812F0F7001901F50032011C013201E2
:10547800320132011F01302A47D10822E5E702F53F
:10548800E232D2F8882002F0C002802A3FD004D845
:10549800FAB3402A3FD10422D7E7C02A3DD10822D7
:1054A800D3E702F5E032D2F8882002F44072B2F570
:1054B800007F34D005D8A2B3B2F5807F33D104225F
:1054C800C3E7B2F5407F30D10822BEE702F5C83203
:1054D800D2F8882002F44062B2F5006F27D005D8D0
:1054E8003AB3B2F5806F26D10422AEE7B2F5406F29
:1054F80023D10822A9E70222A7E70222A5E7022270
:10550800A3E70022A1E710229FE710229DE70222CD
:105518009BE7002299E7102297E7102295E70222DD
:1055280093E7002291E710228FE710228DE70222ED
:105538008BE7002289E7102287E7102285E7082AEF
:1055480000F2B280DFE802F008B03BB038B0B0B08B
:1055580005004FF4004004E0FDF70AFB002800F0C6
:10556800A580626A1E4B33F81220B0FBF2F365681F
:1055780005EB4501994200F29B80B3EB053F00F231
:105588009980002633463146FAF722FE090241EA9D
:10559800106100026B08C0182A46334641F1000129
:1055A800FAF716FEA0F540720E4B9A4200F284807C
:1055B8002368D860304665E0FDF796F9CEE70A48DB
:1055C800CFE700BFF369FFCF0080004000380140FB
:1055D8000044004000480040004C0040005000409B
:1055E80038A30008FFFC0F000024F400082A65D83F
:1055F800DFE802F0072705642A6464640B00354875
:1056080003E0FDF7B5FA00285AD0626A324B33F846
:105618001230B0FBF3F06268530803EB4003B3FBAE
:10562800F2F3A3F110014FF6EF7291424AD89AB201
:1056380022F00F02C3F3420313432268D360002011
:1056480020E0FDF7A7FADEE7FDF74EF9DBE7214892
:1056580003E0FDF78DFA002838D0626A1E4B33F854
:105668001230B0FBF3F0636800EB5300B0FBF3F0CB
:10567800A0F110024FF6EF739A4229D8236880B23E
:10568800D86000200123A4F86A30A4F86830002309
:105698002367636770BDFDF77DFADCE7FDF724F942
:1056A800D9E74FF40040D8E70120EBE70020E9E70D
:1056B8000120E7E70120E5E70120E3E70120E1E732
:1056C8000020DFE70120DDE70120DBE70020D9E744
:1056D8000120D7E70024F40038A30008836A13F0F8
:1056E800010F06D00268536823F40033C16A0B43E4
:1056F8005360836A13F0020F06D00268536823F4DC
:105708008033016B0B435360836A13F0040F06D098
:105718000268536823F48023416B0B435360836A08
:1057280013F0080F06D00268536823F40043816B16
:105738000B435360836A13F0100F06D00268936816
:1057480023F48053C16B0B439360836A13F0200FDB
:1057580006D00268936823F40053016C0B439360EE
:10576800836A13F0400F0AD00268536823F4801349
:10577800416C0B435360436CB3F5801F0BD0836AB5
:1057880013F0800F06D00268536823F40023C16C1D
:105798000B43536070470268536823F4C003816C5D
:1057A8000B435360EBE72DE9F84305460F461646D1
:1057B8009946DDF820802B68DC6937EA04040CBFC1
:1057C80001240024B44257D1B8F1FF3FF3D0FCF7CD
:1057D800D3FDA0EB090040452FD8B8F1000F2CD01D
:1057E8002B681A6812F0040FE5D0DA6912F4006F1A
:1057F800E1D04FF400621A622A6852E8003F23F4AD
:10580800D07342E800310029F6D12A6802F1080372
:1058180053E8003F23F00103083242E80031002931
:10582800F3D12023C5F88430C5F88830C5F88C300A
:10583800002385F8803003201FE02A6852E8003FE3
:1058480023F4D07342E800310029F6D12A6802F126
:10585800080353E8003F23F00103083242E800310F
:105868000029F3D12023C5F88430C5F888300023F7
:1058780085F88030032000E00020BDE8F88330B5CB
:1058880083B004460023C0F88C30FCF775FD05464C
:105898002268126812F0080F0FD123681B6813F0F2
:1058A800040F18D12023C4F88430C4F888300020AD
:1058B800E06684F8800003B030BD6FF07E4300934B
:1058C800034600224FF400112046FFF76CFF002822
:1058D800E3D00320EFE76FF07E4300932B460022CE
:1058E8004FF480012046FFF75EFF0028DAD003203E
:1058F800E1E778B310B50446D0F884300BB324231D
:10590800C4F884302268136823F00103136020462A
:10591800FFF720FD012813D0A36ABBB9226853689A
:1059280023F4904353602268936823F02A0393601A
:105938002268136843F0010313602046FFF79FFFB6
:1059480010BD80F88030FCF7ABF9D8E72046FFF7A8
:10595800C5FEE3E701207047436E2BB90123A0F889
:105968006A30A0F86830704730B403689A68C2F3A8
:1059780042629968490F094D6B5CDB00084C615C19
:1059880093FBF1F3A0F86A30AB5CDB00A25C93FBFD
:10599800F2F3A0F8683030BC704700BF58A3000885
:1059A80050A3000890F88030012B18D0012380F80C
:1059B80080302423C0F8843003681A68196821F0FD
:1059C8000101196022F000520023436601680A6051
:1059D8002022C0F8842080F88030184670470220C2
:1059E800704738B590F88030012B1DD0044601234C
:1059F80080F880302423C0F8843003681D681A6852
:105A080022F001021A600268936823F06043194388
:105A18009160FFF7A1FF23681D602023C4F884303C
:105A2800002084F8800038BD0220FCE738B590F8E3
:105A38008030012B1DD00446012380F880302423B8
:105A4800C0F8843003681D681A6822F001021A60E1
:105A58000268936823F0606319439160FFF77CFF45
:105A680023681D602023C4F88430002084F8800057
:105A780038BD0220FCE70000034AD2F8883043F41E
:105A88007003C2F88830704700ED00E008B5104890
:105A9800104B03604FF482734360002383604FF41C
:105AA800E062C260036143614FF400728261382290
:105AB800C2610362436283620722C26203630823EE
:105AC800436300F0D7F900B908BDFAF70BFCFBE710
